S01D0000323032342E30362E31335F4D5050325F476C6562562E737265636C
S11300000C9434000C9451000C9451000C94510045
S11300100C9451000C9451000C9451000C94510018
S11300200C9451000C9451000C9451000C948401D4
S11300300C9451000C9451000C947A010C945100CE
S11300400C9451000C9451000C94E0010C94510058
S11300500C9451000C949E010C9451000C9451008A
S11300600C9451000C94510011241FBECFEFD8E022
S1130070DEBFCDBF11E0A0E0B1E0E6E6F6E002C0ED
S113008005900D92A031B107D9F721E0A0E1B1E0CC
S113009001C01D92AF31B207E1F70E945E010C94DA
S11300A031030C940000ECE7F0E0808180838081D0
S11300B08F778083EAE7F0E08081876080838081A6
S11300C0886880830895ECE7F0E09081987F892B1D
S11300D08083EAE7F0E0808180648083808180838C
S11300E00895BC01660F771F660F771F680F791F8D
S11300F080E090E00E942D0220E030E040E85AE3E6
S11301000E94BB02089516BC8AEF88BD84B5826044
S113011084BDEEE6F0E080818260808308951092D1
S113012085001092840089E09DE390938900809378
S11301308800E1E8F0E0808188608083EFE6F0E009
S11301408081826080830895813059F018F0823074
S113015089F0089585B5887F85BD85B5682B65BD13
S11301600895E1E8F0E08081887F80838081682BB6
S113017060830895E1EBF0E08081887F8083808153
S1130180682B6083089587E690E09093C500809380
S1130190C40088E98093C10086E08093C20008957A
S11301A09091C0008093C60008958091C600089580
S11301B0611102C08C3381F0611102C08C3379F477
S11301C070E050E0425051096417750759F48E33BA
S11301D061F080E090E0089581E090E0089580E08F
S11301E090E0089580E090E0089581E090E0089523
S11301F0EF92FF920F931F93CF937C01C62F009130
S1130200100110911101080F191F0E94D500F80167
S1130210808300911001109111010115110579F4E9
S11302204C2F602FF70180810E94D800019769F458
S11302300F5F1F4F109311010093100106C00F5F51
S11302401F4F10931101009310016C2F70E0615047
S1130250710980911001909111016817790731F4A7
S1130260109211011092100181E001C080E0CF9141
S11302701F910F91FF90EF900895CF93DF93EC01BE
S113028061E071E00E942803892B81F066E071E04F
S1130290CE010E942803892B59F06BE071E0CE0156
S11302A00E942803892B31F483E005C081E003C058
S11302B082E001C080E0DF91CF91089587EF8AB991
S11302C083E084B917B885B90E9483000E948F0027
S11302D065E080E00E94A40065E081E00E94A40043
S11302E00E94530080E090E00E9463000E94C300DB
S11302F07894FFCF1F920F920FB60F9211240F9094
S11303000FBE0F901F9018951F920F920FB60F9269
S113031011248F93809112018295807F8BB98091F3
S113032012018F5F809312018A3011F4109212012E
S11303308F910F900FBE0F901F9018951F920F92E0
S11303400FB60F9211242F933F934F935F936F93A4
S11303507F938F939F93AF93BF93EF93FF9380917A
S1130360790090E0982F882720917800822B909331
S113037018018093170180911701909118010E9430
S11303807100BC01990F880B990B0E942F02609396
S11303901301709314018093150190931601FF913A
S11303A0EF91BF91AF919F918F917F916F915F91E9
S11303B04F913F912F910F900FBE0F901F90189562
S11303C01F920F920FB60F9211242F933F934F93C6
S11303D05F936F937F938F939F93AF93BF93EF93A9
S11303E0FF9365E070E08AE191E00E94F8000197D4
S11303F0D1F48AE191E00E943D018230910551F0EF
S11304008330910561F0019771F480E090E00E94DF
S1130410630009C081E090E00E94630004C082E0B0
S113042090E00E9463008091000190E00E94D0005F
S113043095B180E2892785B9FF91EF91BF91AF9182
S11304409F918F917F916F915F914F913F912F91E8
S11304500F900FBE0F901F901895E89409C097FB5A
S11304603EF490958095709561957F4F8F4F9F4F87
S11304709923A9F0F92F96E9BB279395F6958795CB
S113048077956795B795F111F8CFFAF4BB0F11F48E
S113049060FF1BC06F5F7F4F8F4F9F4F16C0882335
S11304A011F096E911C0772321F09EE8872F762F6B
S11304B005C0662371F096E8862F70E060E02AF0AC
S11304C09A95660F771F881FDAF7880F9695879598
S11304D097F9089597F99F6780E870E060E00895C0
S11304E09FEF80EC089500240A9416161706180648
S11304F00906089500240A94121613061406050624
S11305000895092E0394000C11F4882352F0BB0FB4
S113051040F4BF2B11F460FF04C06F5F7F4F8F4F17
S11305209F4F089557FD9058440F551F59F05F3F52
S113053071F04795880F97FB991F61F09F3F79F001
S113054087950895121613061406551FF2CF469583
S1130550F1DF08C0161617061806991FF1CF869505
S11305607105610508940895E894BB2766277727E9
S1130570CB0197F908950E94CE020C9481020E9447
S1130580730238F00E947A0220F0952311F00C9443
S11305906A020C94700211240C94B5020E94920217
S11305A070F3959FC1F3950F50E0551F629FF001C2
S11305B0729FBB27F00DB11D639FAA27F00DB11DDB
S11305C0AA1F649F6627B00DA11D661F829F222764
S11305D0B00DA11D621F739FB00DA11D621F839FEB
S11305E0A00D611D221F749F3327A00D611D231FC1
S11305F0849F600D211D822F762F6A2F11249F570F
S113060050409AF0F1F088234AF0EE0FFF1FBB1F11
S1130610661F771F881F91505040A9F79E3F5105D0
S113062080F00C946A020C94B5025F3FE4F3983EA8
S1130630D4F3869577956795B795F795E7959F5F7A
S1130640C1F7FE2B880F911D9695879597F908950C
S1130650FB01DC018D91019080190110D9F3990BF4
S10906600895F894FFCF99
S11306663F3C54303E003C54313E003C54323E0044
S9030000FC
